{"contracts/src/VMFStaking.sol":{"VMFStaking":{"abi":[{"inputs":[{"internalType":"uint40","name":"periodForMinimumRate_","type":"uint40"},{"internalType":"uint64","name":"minimumRate_","type":"uint64"},{"internalType":"uint112","name":"_minimumStakeCap","type":"uint112"},{"internalType":"uint112","name":"_maximumStakeCap","type":"uint112"},{"internalType":"contract IERC20","name":"token_","type":"address"}],"stateMutability":"nonpayable","type":"constructor"},{"inputs":[{"internalType":"address","name":"owner","type":"address"}],"name":"OwnableInvalidOwner","type":"error"},{"inputs":[{"internalType":"address","name":"account","type":"address"}],"name":"OwnableUnauthorizedAccount","type":"error"},{"inputs":[{"internalType":"uint256","name":"x","type":"uint256"},{"internalType":"uint256","name":"y","type":"uint256"}],"name":"PRBMath_MulDiv18_Overflow","type":"error"},{"inputs":[],"name":"VMFStaking__InsufficientWithdrawBalance","type":"error"},{"inputs":[],"name":"VMFStaking__InvalidId","type":"error"},{"inputs":[],"name":"VMFStaking__InvalidStakeAmount","type":"error"},{"inputs":[],"name":"VMFStaking__InvalidStakeBatchParams","type":"error"},{"inputs":[],"name":"VMFStaking__InvalidStakingDuration","type":"error"},{"inputs":[],"name":"VMFStaking__InvalidToken","type":"error"},{"inputs":[],"name":"VMFStaking__InvalidWithdrawAmount","type":"error"},{"inputs":[],"name":"VMFStaking__InvalidWithdrawBatchParams","type":"error"},{"inputs":[],"name":"VMFStaking__NoYieldToWithdrawYet","type":"error"},{"inputs":[],"name":"VMFStaking__StakingPeriodYetToEnd","type":"error"},{"anonymous":false,"inputs":[{"indexed":true,"internalType":"address","name":"previousOwner","type":"address"},{"indexed":true,"internalType":"address","name":"newOwner","type":"address"}],"name":"OwnershipTransferred","type":"event"},{"anonymous":false,"inputs":[{"indexed":true,"internalType":"address","name":"user","type":"address"},{"indexed":true,"internalType":"uint256","name":"id","type":"uint256"},{"indexed":true,"internalType":"uint256","name":"stakedAmount","type":"uint256"},{"indexed":false,"internalType":"uint256","name":"stakingPeriod","type":"uint256"},{"indexed":false,"internalType":"uint256","name":"startTime","type":"uint256"}],"name":"Stake","type":"event"},{"anonymous":false,"inputs":[{"indexed":true,"internalType":"address","name":"user","type":"address"},{"indexed":true,"internalType":"uint256","name":"id","type":"uint256"},{"indexed":false,"internalType":"uint256","name":"stakedAmount","type":"uint256"},{"indexed":true,"internalType":"uint256","name":"yieldWithdrawalAmount","type":"uint256"},{"indexed":false,"internalType":"uint256","name":"stakingPeriod","type":"uint256"},{"indexed":false,"internalType":"uint256","name":"startTime","type":"uint256"},{"indexed":false,"internalType":"uint256","name":"endTime","type":"uint256"}],"name":"StakeYieldWithdraw","type":"event"},{"anonymous":false,"inputs":[{"indexed":true,"internalType":"address","name":"user","type":"address"},{"indexed":true,"internalType":"uint256","name":"id","type":"uint256"},{"indexed":false,"internalType":"uint256","name":"stakedAmount","type":"uint256"},{"indexed":true,"internalType":"uint256","name":"withdrawAmount","type":"uint256"},{"indexed":false,"internalType":"uint256","name":"stakingPeriod","type":"uint256"},{"indexed":false,"internalType":"uint256","name":"startTime","type":"uint256"},{"indexed":false,"internalType":"uint256","name":"endTime","type":"uint256"}],"name":"Withdraw","type":"event"},{"inputs":[],"name":"_minimumAPRRate","outputs":[{"internalType":"uint64","name":"","type":"uint64"}],"stateMutability":"view","type":"function"},{"inputs":[{"internalType":"address","name":"","type":"address"},{"internalType":"uint64","name":"","type":"uint64"}],"name":"_userStakingInfo","outputs":[{"internalType":"uint48","name":"id","type":"uint48"},{"internalType":"uint40","name":"startTime","type":"uint40"},{"internalType":"uint40","name":"stakingPeriod","type":"uint40"},{"internalType":"uint112","name":"stakedAmount","type":"uint112"},{"internalType":"uint40","name":"lastYieldClaimAt","type":"uint40"}],"stateMutability":"view","type":"function"},{"inputs":[{"internalType":"uint256","name":"_ratio","type":"uint256"},{"internalType":"uint256","name":"_principal","type":"uint256"},{"internalType":"uint256","name":"_n","type":"uint256"}],"name":"calculateCompound","outputs":[{"internalType":"uint256","name":"","type":"uint256"}],"stateMutability":"pure","type":"function"},{"inputs":[{"internalType":"uint256","name":"_ratio","type":"uint256"},{"internalType":"uint256","name":"_principal","type":"uint256"},{"internalType":"uint256","name":"_n","type":"uint256"}],"name":"calculateStakeYield","outputs":[{"internalType":"uint256","name":"","type":"uint256"}],"stateMutability":"pure","type":"function"},{"inputs":[{"internalType":"uint48","name":"id","type":"uint48"},{"internalType":"uint40","name":"stakingPeriod","type":"uint40"}],"name":"extendStakingPeriod","outputs":[],"stateMutability":"nonpayable","type":"function"},{"inputs":[{"internalType":"address","name":"_user","type":"address"},{"internalType":"uint48","name":"_stakingId","type":"uint48"}],"name":"getUserStakingInfo","outputs":[{"components":[{"internalType":"uint48","name":"id","type":"uint48"},{"internalType":"uint40","name":"startTime","type":"uint40"},{"internalType":"uint40","name":"stakingPeriod","type":"uint40"},{"internalType":"uint112","name":"stakedAmount","type":"uint112"},{"internalType":"uint40","name":"lastYieldClaimAt","type":"uint40"}],"internalType":"struct VMFStaking.StakingInfo","name":"","type":"tuple"}],"stateMutability":"view","type":"function"},{"inputs":[{"internalType":"uint48","name":"_id","type":"uint48"},{"internalType":"address","name":"_user","type":"address"}],"name":"getWithdrawableAmount","outputs":[{"internalType":"uint256","name":"","type":"uint256"}],"stateMutability":"view","type":"function"},{"inputs":[],"name":"idCounter","outputs":[{"internalType":"uint256","name":"","type":"uint256"}],"stateMutability":"view","type":"function"},{"inputs":[],"name":"maximumStakeCap","outputs":[{"internalType":"uint112","name":"","type":"uint112"}],"stateMutability":"view","type":"function"},{"inputs":[],"name":"minimumRate","outputs":[{"internalType":"uint256","name":"","type":"uint256"}],"stateMutability":"view","type":"function"},{"inputs":[],"name":"minimumStakeCap","outputs":[{"internalType":"uint112","name":"","type":"uint112"}],"stateMutability":"view","type":"function"},{"inputs":[],"name":"owner","outputs":[{"internalType":"address","name":"","type":"address"}],"stateMutability":"view","type":"function"},{"inputs":[],"name":"renounceOwnership","outputs":[],"stateMutability":"nonpayable","type":"function"},{"inputs":[{"internalType":"uint112","name":"_newCap","type":"uint112"}],"name":"setMaximumStakeCap","outputs":[],"stateMutability":"nonpayable","type":"function"},{"inputs":[{"internalType":"uint112","name":"_newCap","type":"uint112"}],"name":"setMinimumStakeCap","outputs":[],"stateMutability":"nonpayable","type":"function"},{"inputs":[{"internalType":"uint112","name":"amount","type":"uint112"},{"internalType":"uint40","name":"stakingPeriod","type":"uint40"}],"name":"stake","outputs":[],"stateMutability":"nonpayable","type":"function"},{"inputs":[{"internalType":"uint112[]","name":"amounts","type":"uint112[]"},{"internalType":"uint40[]","name":"stakingPeriods","type":"uint40[]"}],"name":"stakeBatch","outputs":[],"stateMutability":"nonpayable","type":"function"},{"inputs":[],"name":"token","outputs":[{"internalType":"contract IERC20","name":"","type":"address"}],"stateMutability":"view","type":"function"},{"inputs":[{"internalType":"address","name":"newOwner","type":"address"}],"name":"transferOwnership","outputs":[],"stateMutability":"nonpayable","type":"function"},{"inputs":[{"internalType":"uint48","name":"_id","type":"uint48"},{"internalType":"uint112","name":"_withdrawAmount","type":"uint112"}],"name":"withdraw","outputs":[],"stateMutability":"nonpayable","type":"function"},{"inputs":[{"internalType":"uint48","name":"id","type":"uint48"}],"name":"withdrawAll","outputs":[],"stateMutability":"nonpayable","type":"function"},{"inputs":[{"internalType":"uint48[]","name":"ids","type":"uint48[]"},{"internalType":"uint112[]","name":"amounts","type":"uint112[]"}],"name":"withdrawBatch","outputs":[],"stateMutability":"nonpayable","type":"function"},{"inputs":[{"internalType":"uint48","name":"_id","type":"uint48"}],"name":"withdrawYield","outputs":[],"stateMutability":"nonpayable","type":"function"}],"evm":{"bytecode":{"linkReferences":{},"object":"60e06040526000805465ffffffffffff60a01b1916600160a01b1790553480156200002957600080fd5b5060405162001cf538038062001cf58339810160408190526200004c916200016c565b33806200007357604051631e4fbdf760e01b81526000600482015260240160405180910390fd5b6200007e81620000ff565b506001600160a01b038116620000a75760405163c4acfb3f60e01b815260040160405180910390fd5b64ffffffffff9094166080526001600160401b0390921660a052600180546001600160701b03938416600160701b026001600160e01b031990911693909216929092171790556001600160a01b031660c05262000205565b600080546001600160a01b038381166001600160a01b0319831681178455604051919092169283917f8be0079c531659141344cd1fd0a4f28419497f9722a3daafe3b4186f6b6457e09190a35050565b80516001600160701b03811681146200016757600080fd5b919050565b600080600080600060a086880312156200018557600080fd5b855164ffffffffff811681146200019b57600080fd5b60208701519095506001600160401b0381168114620001b957600080fd5b9350620001c9604087016200014f565b9250620001d9606087016200014f565b60808701519092506001600160a01b0381168114620001f757600080fd5b809150509295509295909350565b60805160a05160c051611a81620002746000396000818161052e01528181610e0801528181610fc5015281816111ec0152611493015260008181610278015281816104fe015281816109e201528181610ece0152611675015260008181610b290152610bde0152611a816000f3fe608060405234801561001057600080fd5b506004361061014d5760003560e01c806393797eb2116100c3578063c6928f191161007c578063c6928f1914610397578063eb08ab28146103aa578063f2fde38b146103c1578063f6220fde146103d4578063fae6dbe3146104fc578063fc0c546a1461052c57600080fd5b806393797eb21461031e5780639482d0f914610338578063997fc3611461034b578063a72210aa1461035e578063ae3fee7214610371578063aec119a11461038457600080fd5b80633ac1d342116101155780633ac1d342146102605780634a87da281461027357806356f5fb78146102b357806363318278146102de578063715018a6146102f15780638da5cb5b146102f957600080fd5b806305a294301461015257806313acba971461020457806323cc129d146102195780632cd15a1c1461022c578063372149c01461024d575b600080fd5b6101bb6101603660046116d1565b60026020908152600092835260408084209091529082529020805460019091015465ffffffffffff82169164ffffffffff600160301b8204811692600160581b83048216926001600160701b03600160801b90910416911685565b6040805165ffffffffffff909616865264ffffffffff9485166020870152928416928501929092526001600160701b0316606084015216608082015260a0015b60405180910390f35b610217610212366004611761565b610552565b005b610217610227366004611761565b6105dd565b61023f61023a3660046117cd565b610683565b6040519081526020016101fb565b61021761025b366004611810565b6106b4565b61021761026e366004611841565b6106ef565b61029a7f000000000000000000000000000000000000000000000000000000000000000081565b60405167ffffffffffffffff90911681526020016101fb565b6001546102c6906001600160701b031681565b6040516001600160701b0390911681526020016101fb565b6102176102ec366004611841565b6107c0565b610217610822565b6000546001600160a01b03165b6040516001600160a01b0390911681526020016101fb565b6001546102c690600160701b90046001600160701b031681565b61021761034636600461185c565b610836565b61023f61035936600461188f565b610935565b61021761036c366004611810565b610a2e565b61021761037f3660046118ce565b610a5f565b6102176103923660046118f8565b610b79565b61023f6103a53660046117cd565b610c34565b600054600160a01b900465ffffffffffff1661023f565b6102176103cf366004611914565b610c72565b61049a6103e236600461192f565b6040805160a081018252600080825260208201819052918101829052606081018290526080810191909152506001600160a01b0391909116600090815260026020908152604080832065ffffffffffff9485168452825291829020825160a08101845281549485168152600160301b850464ffffffffff90811693820193909352600160581b8504831693810193909352600160801b9093046001600160701b03166060830152600190920154909116608082015290565b6040516101fb9190600060a08201905065ffffffffffff8351168252602083015164ffffffffff80821660208501528060408601511660408501526001600160701b036060860151166060850152806080860151166080850152505092915050565b7f000000000000000000000000000000000000000000000000000000000000000067ffffffffffffffff1661023f565b7f0000000000000000000000000000000000000000000000000000000000000000610306565b8281146105725760405163e914a06560e01b815260040160405180910390fd5b60005b838110156105d6576105ce85858381811061059257610592611959565b90506020020160208101906105a79190611810565b8484848181106105b9576105b9611959565b9050602002016020810190610392919061196f565b600101610575565b5050505050565b8083146105fd5760405163eb52e12560e01b815260040160405180910390fd5b60005b65ffffffffffff81168411156105d65761067185858365ffffffffffff1681811061062d5761062d611959565b90506020020160208101906106429190611841565b84848465ffffffffffff1681811061065c5761065c611959565b90506020020160208101906103469190611810565b8061067b816119a0565b915050610600565b60008061069661069384876119c5565b90565b905060006106a6855b8390610cb5565b9050805b9695505050505050565b6106bc610ccb565b600180546001600160701b03909216600160701b026dffffffffffffffffffffffffffff60701b19909216919091179055565b33600090815260026020908152604080832065ffffffffffff851684529091528120548291600160801b9091046001600160701b031690036107445760405163ca74caa360e01b815260040160405180910390fd5b33600090815260026020908152604080832065ffffffffffff86168085529252822054909164ffffffffff600160301b8304811692600160581b9004169061078c83426119dc565b9050818110156107af5760405163e1d0091f60e01b815260040160405180910390fd5b6107b886610cf8565b505050505050565b33600090815260026020908152604080832065ffffffffffff851684529091528120548291600160801b9091046001600160701b031690036108155760405163ca74caa360e01b815260040160405180910390fd5b61081e82610e75565b5050565b61082a610ccb565b610834600061103b565b565b33600090815260026020908152604080832065ffffffffffff861684529091528120548391600160801b9091046001600160701b0316900361088b5760405163ca74caa360e01b815260040160405180910390fd5b816001600160701b0316806000036108b65760405163d446e6d960e01b815260040160405180910390fd5b33600090815260026020908152604080832065ffffffffffff88168085529252822054909164ffffffffff600160301b8304811692600160581b900416906108fe83426119dc565b9050818110156109215760405163e1d0091f60e01b815260040160405180910390fd5b61092b888861108b565b5050505050505050565b6001600160a01b038116600090815260026020908152604080832065ffffffffffff86168452909152812054600160801b90046001600160701b031681036109905760405163ca74caa360e01b815260040160405180910390fd5b6001600160a01b038216600090815260026020908152604080832065ffffffffffff87168452909152812060018101549091906109d49064ffffffffff16426119dc565b8254909150600090610a22907f000000000000000000000000000000000000000000000000000000000000000067ffffffffffffffff1690600160801b90046001600160701b031684610c34565b93505050505b92915050565b610a36610ccb565b600180546dffffffffffffffffffffffffffff19166001600160701b0392909216919091179055565b33600090815260026020908152604080832065ffffffffffff861684529091528120548391600160801b9091046001600160701b03169003610ab45760405163ca74caa360e01b815260040160405180910390fd5b33600090815260026020908152604080832065ffffffffffff87168085529252822054909164ffffffffff600160301b8304811692600160581b90041690610afc83426119dc565b905081811015610b1f5760405163e1d0091f60e01b815260040160405180910390fd5b8564ffffffffff167f000000000000000000000000000000000000000000000000000000000000000064ffffffffff16811015610b6f57604051631cb2298f60e01b815260040160405180910390fd5b61092b8888611223565b6001600160701b038216801580610b9a57506001546001600160701b031681105b80610bb65750600154600160701b90046001600160701b031681115b15610bd45760405163e2590d0b60e01b815260040160405180910390fd5b8164ffffffffff167f000000000000000000000000000000000000000000000000000000000000000064ffffffffff16811015610c2457604051631cb2298f60e01b815260040160405180910390fd5b610c2e848461127e565b50505050565b600080610c4461069384876119c5565b90506000610c5a670de0b6b3a764000083611550565b90506000610c678661069f565b979650505050505050565b610c7a610ccb565b6001600160a01b038116610ca957604051631e4fbdf760e01b8152600060048201526024015b60405180910390fd5b610cb28161103b565b50565b6000610cc4610693848461155f565b9392505050565b6000546001600160a01b031633146108345760405163118cdaa760e01b8152336004820152602401610ca0565b33600090815260026020908152604080832065ffffffffffff85168452909152812090610d2483611615565b8254604080516001600160701b03600160801b840416815264ffffffffff600160581b840481166020830152600160301b90930490921690820152426060820152909150819065ffffffffffff85169033907f194c8d0132d20112211dfa71bb87a92766fde4f4318e08efd2cc4a6e188e509d9060800160405180910390a433600081815260026020908152604080832065ffffffffffff881684529091529081902080546001600160f01b0319168155600101805464ffffffffff191690555163a9059cbb60e01b81526004810191909152602481018290526001600160a01b037f0000000000000000000000000000000000000000000000000000000000000000169063a9059cbb906044016020604051808303816000875af1158015610e51573d6000803e3d6000fd5b505050506040513d601f19601f82011682018060405250810190610c2e91906119ef565b33600090815260026020908152604080832065ffffffffffff851684529091529020600181015464ffffffffff16428103610ec3576040516366ace88960e11b815260040160405180910390fd5b8154600090610f12907f000000000000000000000000000000000000000000000000000000000000000067ffffffffffffffff1690600160801b90046001600160701b031661023a85426119dc565b8354909150819065ffffffffffff86169033907f25422894688294c003660de40018f6e614b3d4ee4dfbef2615cb5ad5c2e8911090600160801b90046001600160701b0316610f6187426119dc565b604080516001600160701b0390931683526020830191909152810187905242606082015260800160405180910390a460018301805464ffffffffff19164264ffffffffff1617905560405163a9059cbb60e01b8152336004820152602481018290527f00000000000000000000000000000000000000000000000000000000000000006001600160a01b03169063a9059cbb906044015b6020604051808303816000875af1158015611017573d6000803e3d6000fd5b505050506040513d601f19601f820116820180604052508101906105d691906119ef565b600080546001600160a01b038381166001600160a01b0319831681178455604051919092169283917f8be0079c531659141344cd1fd0a4f28419497f9722a3daafe3b4186f6b6457e09190a35050565b33600090815260026020908152604080832065ffffffffffff861684529091528120906110b784611615565b905080836001600160701b031611156110e3576040516361bf8ced60e11b815260040160405180910390fd5b8154604080516001600160701b03600160801b84048116825264ffffffffff600160581b850481166020840152600160301b9094049093168183015242606082015290519185169165ffffffffffff87169133917f194c8d0132d20112211dfa71bb87a92766fde4f4318e08efd2cc4a6e188e509d916080908290030190a481546001600160701b03600160801b909104811690841610156111c8578154839083906010906111a3908490600160801b90046001600160701b0316611a11565b92506101000a8154816001600160701b0302191690836001600160701b031602179055505b60405163a9059cbb60e01b81523360048201526001600160701b03841660248201527f00000000000000000000000000000000000000000000000000000000000000006001600160a01b03169063a9059cbb90604401610ff8565b600061122e83611615565b33600090815260026020908152604080832065ffffffffffff88168452909152902080546001600160f01b0319168155600101805464ffffffffff191690559050611279818361127e565b505050565b60008060149054906101000a900465ffffffffffff1690506040518060a001604052808265ffffffffffff1681526020014264ffffffffff1681526020018364ffffffffff168152602001846001600160701b031681526020014264ffffffffff1681525060026000336001600160a01b03166001600160a01b0316815260200190815260200160002060008365ffffffffffff1667ffffffffffffffff16815260200190815260200160002060008201518160000160006101000a81548165ffffffffffff021916908365ffffffffffff16021790555060208201518160000160066101000a81548164ffffffffff021916908364ffffffffff160217905550604082015181600001600b6101000a81548164ffffffffff021916908364ffffffffff16021790555060608201518160000160106101000a8154816001600160701b0302191690836001600160701b0316021790555060808201518160010160006101000a81548164ffffffffff021916908364ffffffffff160217905550905050826001600160701b03168165ffffffffffff16336001600160a01b03167f2720efa4b2dd4f3f8a347da3cbd290a522e9432da9072c5b8e6300496fdde282854260405161146192919064ffffffffff929092168252602082015260400190565b60405180910390a46040516323b872dd60e01b81523360048201523060248201526001600160701b03841660448201527f00000000000000000000000000000000000000000000000000000000000000006001600160a01b0316906323b872dd906064016020604051808303816000875af11580156114e4573d6000803e3d6000fd5b505050506040513d601f19601f8201168201806040525081019061150891906119ef565b5060008054600160a01b900465ffffffffffff16906014611528836119a0565b91906101000a81548165ffffffffffff021916908365ffffffffffff16021790555050505050565b6000610cc46106938385611a38565b60008080600019848609848602925082811083820303915050806000036115935750670de0b6b3a764000090049050610a28565b670de0b6b3a764000081106115c557604051635173648d60e01b81526004810186905260248101859052604401610ca0565b6000670de0b6b3a764000085870962040000818503049310909103600160ee1b02919091177faccb18165bd6fe31ae1cf318dc5b51eee0e1ba569b88cd74c1773b91fac106690291505092915050565b33600090815260026020908152604080832065ffffffffffff851684529091528120600181015464ffffffffff168261164e82426119dc565b60018401805464ffffffffff19164264ffffffffff1617905583549091506000906106aa907f000000000000000000000000000000000000000000000000000000000000000067ffffffffffffffff1690600160801b90046001600160701b031684610c34565b80356001600160a01b03811681146116cc57600080fd5b919050565b600080604083850312156116e457600080fd5b6116ed836116b5565b9150602083013567ffffffffffffffff8116811461170a57600080fd5b809150509250929050565b60008083601f84011261172757600080fd5b50813567ffffffffffffffff81111561173f57600080fd5b6020830191508360208260051b850101111561175a57600080fd5b9250929050565b6000806000806040858703121561177757600080fd5b843567ffffffffffffffff8082111561178f57600080fd5b61179b88838901611715565b909650945060208701359150808211156117b457600080fd5b506117c187828801611715565b95989497509550505050565b6000806000606084860312156117e257600080fd5b505081359360208301359350604090920135919050565b80356001600160701b03811681146116cc57600080fd5b60006020828403121561182257600080fd5b610cc4826117f9565b803565ffffffffffff811681146116cc57600080fd5b60006020828403121561185357600080fd5b610cc48261182b565b6000806040838503121561186f57600080fd5b6118788361182b565b9150611886602084016117f9565b90509250929050565b600080604083850312156118a257600080fd5b6118ab8361182b565b9150611886602084016116b5565b803564ffffffffff811681146116cc57600080fd5b600080604083850312156118e157600080fd5b6118ea8361182b565b9150611886602084016118b9565b6000806040838503121561190b57600080fd5b6118ea836117f9565b60006020828403121561192657600080fd5b610cc4826116b5565b6000806040838503121561194257600080fd5b61194b836116b5565b91506118866020840161182b565b634e487b7160e01b600052603260045260246000fd5b60006020828403121561198157600080fd5b610cc4826118b9565b634e487b7160e01b600052601160045260246000fd5b600065ffffffffffff8083168181036119bb576119bb61198a565b6001019392505050565b8082028115828204841417610a2857610a2861198a565b81810381811115610a2857610a2861198a565b600060208284031215611a0157600080fd5b81518015158114610cc457600080fd5b6001600160701b03828116828216039080821115611a3157611a3161198a565b5092915050565b80820180821115610a2857610a2861198a56fea26469706673582212204c0549b586a189fe4ac65b15395263feb3db879367b22f2ce41e08b526d518f864736f6c63430008180033","opcodes":"PUSH1 0xE0 PUSH1 0x40 MSTORE PUSH1 0x0 DUP1 SLOAD PUSH6 0xFFFFFFFFFFFF PUSH1 0xA0 SHL NOT AND PUSH1 0x1 PUSH1 0xA0 SHL OR SWAP1 SSTORE CALLVALUE DUP1 ISZERO PUSH3 0x29 JUMPI PUSH1 0x0 DUP1 REVERT JUMPDEST POP PUSH1 0x40 MLOAD PUSH3 0x1CF5 CODESIZE SUB DUP1 PUSH3 0x1CF5 DUP4 CODECOPY DUP2 ADD PUSH1 0x40 DUP2 SWAP1 MSTORE PUSH3 0x4C SWAP2 PUSH3 0x16C JUMP JUMPDEST CALLER DUP1 PUSH3 0x73 JUMPI PUSH1 0x40 MLOAD PUSH4 0x1E4FBDF7 PUSH1 0xE0 SHL DUP2 MSTORE PUSH1 0x0 PUSH1 0x4 DUP3 ADD MSTORE PUSH1 0x24 ADD PUSH1 0x40 MLOAD DUP1 SWAP2 SUB SWAP1 REVERT JUMPDEST PUSH3 0x7E DUP2 PUSH3 0xFF JUMP JUMPDEST POP PUSH1 0x1 PUSH1 0x1 PUSH1 0xA0 SHL SUB DUP2 AND PUSH3 0xA7 JUMPI PUSH1 0x40 MLOAD PUSH4 0xC4ACFB3F PUSH1 0xE0 SHL DUP2 MSTORE PUSH1 0x4 ADD PUSH1 0x40 MLOAD DUP1 SWAP2 SUB SWAP1 REVERT JUMPDEST PUSH5 0xFFFFFFFFFF SWAP1 SWAP5 AND PUSH1 0x80 MSTORE PUSH1 0x1 PUSH1 0x1 PUSH1 0x40 SHL SUB SWAP1 SWAP3 AND PUSH1 0xA0 MSTORE PUSH1 0x1 DUP1 SLOAD PUSH1 0x1 PUSH1 0x1 PUSH1 0x70 SHL SUB SWAP4 DUP5 AND PUSH1 0x1 PUSH1 0x70 SHL MUL PUSH1 0x1 PUSH1 0x1 PUSH1 0xE0 SHL SUB NOT SWAP1 SWAP2 AND SWAP4 SWAP1 SWAP3 AND SWAP3 SWAP1 SWAP3 OR OR SWAP1 SSTORE PUSH1 0x1 PUSH1 0x1 PUSH1 0xA0 SHL SUB AND PUSH1 0xC0 MSTORE PUSH3 0x205 JUMP JUMPDEST PUSH1 0x0 DUP1 SLOAD PUSH1 0x1 PUSH1 0x1 PUSH1 0xA0 SHL SUB DUP4 DUP2 AND PUSH1 0x1 PUSH1 0x1 PUSH1 0xA0 SHL SUB NOT DUP4 AND DUP2 OR DUP5 SSTORE PUSH1 0x40 MLOAD SWAP2 SWAP1 SWAP3 AND SWAP3 DUP4 SWAP2 PUSH32 0x8BE0079C531659141344CD1FD0A4F28419497F9722A3DAAFE3B4186F6B6457E0 SWAP2 SWAP1 LOG3 POP POP JUMP JUMPDEST DUP1 MLOAD PUSH1 0x1 PUSH1 0x1 PUSH1 0x70 SHL SUB DUP2 AND DUP2 EQ PUSH3 0x167 JUMPI PUSH1 0x0 DUP1 REVERT JUMPDEST SWAP2 SWAP1 POP JUMP JUMPDEST PUSH1 0x0 DUP1 PUSH1 0x0 DUP1 PUSH1 0x0 PUSH1 0xA0 DUP7 DUP9 SUB SLT ISZERO PUSH3 0x185 JUMPI PUSH1 0x0 DUP1 REVERT JUMPDEST DUP6 MLOAD PUSH5 0xFFFFFFFFFF DUP2 AND DUP2 EQ PUSH3 0x19B JUMPI PUSH1 0x0 DUP1 REVERT JUMPDEST PUSH1 0x20 DUP8 ADD MLOAD SWAP1 SWAP6 POP PUSH1 0x1 PUSH1 0x1 PUSH1 0x40 SHL SUB DUP2 AND DUP2 EQ PUSH3 0x1B9 JUMPI PUSH1 0x0 DUP1 REVERT JUMPDEST SWAP4 POP PUSH3 0x1C9 PUSH1 0x40 DUP8 ADD PUSH3 0x14F JUMP JUMPDEST SWAP3 POP PUSH3 0x1D9 PUSH1 0x60 DUP8 ADD PUSH3 0x14F JUMP JUMPDEST PUSH1 0x80 DUP8 ADD MLOAD SWAP1 SWAP3 POP PUSH1 0x1 PUSH1 0x1 PUSH1 0xA0 SHL SUB DUP2 AND DUP2 EQ PUSH3 0x1F7 JUMPI PUSH1 0x0 DUP1 REVERT JUMPDEST DUP1 SWAP2 POP POP SWAP3 SWAP6 POP SWAP3 SWAP6 SWAP1 SWAP4 POP JUMP JUMPDEST PUSH1 0x80 MLOAD PUSH1 0xA0 MLOAD PUSH1 0xC0 MLOAD PUSH2 0x1A81 PUSH3 0x274 PUSH1 0x0 CODECOPY PUSH1 0x0 DUP2 DUP2 PUSH2 0x52E ADD MSTORE DUP2 DUP2 PUSH2 0xE08 ADD MSTORE DUP2 DUP2 PUSH2 0xFC5 ADD MSTORE DUP2 DUP2 PUSH2 0x11EC ADD MSTORE PUSH2 0x1493 ADD MSTORE PUSH1 0x0 DUP2 DUP2 PUSH2 0x278 ADD MSTORE DUP2 DUP2 PUSH2 0x4FE ADD MSTORE DUP2 DUP2 PUSH2 0x9E2 ADD MSTORE DUP2 DUP2 PUSH2 0xECE ADD MSTORE PUSH2 0x1675 ADD MSTORE PUSH1 0x0 DUP2 DUP2 PUSH2 0xB29 ADD MSTORE PUSH2 0xBDE ADD MSTORE PUSH2 0x1A81 PUSH1 0x0 RETURN INVALID PUSH1 0x80 PUSH1 0x40 MSTORE CALLVALUE DUP1 ISZERO PUSH2 0x10 JUMPI PUSH1 0x0 DUP1 REVERT JUMPDEST POP PUSH1 0x4 CALLDATASIZE LT PUSH2 0x14D JUMPI PUSH1 0x0 CALLDATALOAD PUSH1 0xE0 SHR DUP1 PUSH4 0x93797EB2 GT PUSH2 0xC3 JUMPI DUP1 PUSH4 0xC6928F19 GT PUSH2 0x7C JUMPI DUP1 PUSH4 0xC6928F19 EQ PUSH2 0x397 JUMPI DUP1 PUSH4 0xEB08AB28 EQ PUSH2 0x3AA JUMPI DUP1 PUSH4 0xF2FDE38B EQ PUSH2 0x3C1 JUMPI DUP1 PUSH4 0xF6220FDE EQ PUSH2 0x3D4 JUMPI DUP1 PUSH4 0xFAE6DBE3 EQ PUSH2 0x4FC JUMPI DUP1 PUSH4 0xFC0C546A EQ PUSH2 0x52C JUMPI PUSH1 0x0 DUP1 REVERT JUMPDEST DUP1 PUSH4 0x93797EB2 EQ PUSH2 0x31E JUMPI DUP1 PUSH4 0x9482D0F9 EQ PUSH2 0x338 JUMPI DUP1 PUSH4 0x997FC361 EQ PUSH2 0x34B JUMPI DUP1 PUSH4 0xA72210AA EQ PUSH2 0x35E JUMPI DUP1 PUSH4 0xAE3FEE72 EQ PUSH2 0x371 JUMPI DUP1 PUSH4 0xAEC119A1 EQ PUSH2 0x384 JUMPI PUSH1 0x0 DUP1 REVERT JUMPDEST DUP1 PUSH4 0x3AC1D342 GT PUSH2 0x115 JUMPI DUP1 PUSH4 0x3AC1D342 EQ PUSH2 0x260 JUMPI DUP1 PUSH4 0x4A87DA28 EQ PUSH2 0x273 JUMPI DUP1 PUSH4 0x56F5FB78 EQ PUSH2 0x2B3 JUMPI DUP1 PUSH4 0x63318278 EQ PUSH2 0x2DE JUMPI DUP1 PUSH4 0x715018A6 EQ PUSH2 0x2F1 JUMPI DUP1 PUSH4 0x8DA5CB5B EQ PUSH2 0x2F9 JUMPI PUSH1 0x0 DUP1 REVERT JUMPDEST DUP1 PUSH4 0x5A29430 EQ PUSH2 0x152 JUMPI DUP1 PUSH4 0x13ACBA97 EQ PUSH2 0x204 JUMPI DUP1 PUSH4 0x23CC129D EQ PUSH2 0x219 JUMPI DUP1 PUSH4 0x2CD15A1C EQ PUSH2 0x22C JUMPI DUP1 PUSH4 0x372149C0 EQ PUSH2 0x24D JUMPI JUMPDEST PUSH1 0x0 DUP1 REVERT JUMPDEST PUSH2 0x1BB PUSH2 0x160 CALLDATASIZE PUSH1 0x4 PUSH2 0x16D1 JUMP JUMPDEST PUSH1 0x2 PUSH1 0x20 SWAP1 DUP2 MSTORE PUSH1 0x0 SWAP3 DUP4 MSTORE PUSH1 0x40 DUP1 DUP5 KECCAK256 SWAP1 SWAP2 MSTORE SWAP1 DUP3 MSTORE SWAP1 KECCAK256 DUP1 SLOAD PUSH1 0x1 SWAP1 SWAP2 ADD SLOAD PUSH6 0xFFFFFFFFFFFF DUP3 AND SWAP2 PUSH5 0xFFFFFFFFFF PUSH1 0x1 PUSH1 0x30 SHL DUP3 DIV DUP2 AND SWAP3 PUSH1 0x1 PUSH1 0x58 SHL DUP4 DIV DUP3 AND SWAP3 PUSH1 0x1 PUSH1 0x1 PUSH1 0x70 SHL SUB PUSH1 0x1 PUSH1 0x80 SHL SWAP1 SWAP2 DIV AND SWAP2 AND DUP6 JUMP JUMPDEST PUSH1 0x40 DUP1 MLOAD PUSH6 0xFFFFFFFFFFFF SWAP1 SWAP7 AND DUP7 MSTORE PUSH5 0xFFFFFFFFFF SWAP5 DUP6 AND PUSH1 0x20 DUP8 ADD MSTORE SWAP3 DUP5 AND SWAP3 DUP6 ADD SWAP3 SWAP1 SWAP3 MSTORE PUSH1 0x1 PUSH1 0x1 PUSH1 0x70 SHL SUB AND PUSH1 0x60 DUP5 ADD MSTORE AND PUSH1 0x80 DUP3 ADD MSTORE PUSH1 0xA0 ADD JUMPDEST PUSH1 0x40 MLOAD DUP1 SWAP2 SUB SWAP1 RETURN JUMPDEST PUSH2 0x217 PUSH2 0x212 CALLDATASIZE PUSH1 0x4 PUSH2 0x1761 JUMP JUMPDEST PUSH2 0x552 JUMP JUMPDEST STOP JUMPDEST PUSH2 0x217 PUSH2 0x227 CALLDATASIZE PUSH1 0x4 PUSH2 0x1761 JUMP JUMPDEST PUSH2 0x5DD JUMP JUMPDEST PUSH2 0x23F PUSH2 0x23A CALLDATASIZE PUSH1 0x4 PUSH2 0x17CD JUMP JUMPDEST PUSH2 0x683 JUMP JUMPDEST PUSH1 0x40 MLOAD SWAP1 DUP2 MSTORE PUSH1 0x20 ADD PUSH2 0x1FB JUMP JUMPDEST PUSH2 0x217 PUSH2 0x25B CALLDATASIZE PUSH1 0x4 PUSH2 0x1810 JUMP JUMPDEST PUSH2 0x6B4 JUMP JUMPDEST PUSH2 0x217 PUSH2 0x26E CALLDATASIZE PUSH1 0x4 PUSH2 0x1841 JUMP JUMPDEST PUSH2 0x6EF JUMP JUMPDEST PUSH2 0x29A PUSH32 0x0 DUP2 JUMP JUMPDEST PUSH1 0x40 MLOAD PUSH8 0xFFFFFFFFFFFFFFFF SWAP1 SWAP2 AND DUP2 MSTORE PUSH1 0x20 ADD PUSH2 0x1FB JUMP JUMPDEST PUSH1 0x1 SLOAD PUSH2 0x2C6 SWAP1 PUSH1 0x1 PUSH1 0x1 PUSH1 0x70 SHL SUB AND DUP2 JUMP JUMPDEST PUSH1 0x40 MLOAD PUSH1 0x1 PUSH1 0x1 PUSH1 0x70 SHL SUB SWAP1 SWAP2 AND DUP2 MSTORE PUSH1 0x20 ADD PUSH2 0x1FB JUMP JUMPDEST PUSH2 0x217 PUSH2 0x2EC CALLDATASIZE PUSH1 0x4 PUSH2 0x1841 JUMP JUMPDEST PUSH2 0x7C0 JUMP JUMPDEST PUSH2 0x217 PUSH2 0x822 JUMP JUMPDEST PUSH1 0x0 SLOAD PUSH1 0x1 PUSH1 0x1 PUSH1 0xA0 SHL SUB AND JUMPDEST PUSH1 0x40 MLOAD PUSH1 0x1 PUSH1 0x1 PUSH1 0xA0 SHL SUB SWAP1 SWAP2 AND DUP2 MSTORE PUSH1 0x20 ADD PUSH2 0x1FB JUMP JUMPDEST PUSH1 0x1 SLOAD PUSH2 0x2C6 SWAP1 PUSH1 0x1 PUSH1 0x70 SHL SWAP1 DIV PUSH1 0x1 PUSH1 0x1 PUSH1 0x70 SHL SUB AND DUP2 JUMP JUMPDEST PUSH2 0x217 PUSH2 0x346 CALLDATASIZE PUSH1 0x4 PUSH2 0x185C JUMP JUMPDEST PUSH2 0x836 JUMP JUMPDEST PUSH2 0x23F PUSH2 0x359 CALLDATASIZE PUSH1 0x4 PUSH2 0x188F JUMP JUMPDEST PUSH2 0x935 JUMP JUMPDEST PUSH2 0x217 PUSH2 0x36C CALLDATASIZE PUSH1 0x4 PUSH2 0x1810 JUMP JUMPDEST PUSH2 0xA2E JUMP JUMPDEST PUSH2 0x217 PUSH2 0x37F CALLDATASIZE PUSH1 0x4 PUSH2 0x18CE JUMP JUMPDEST PUSH2 0xA5F JUMP JUMPDEST PUSH2 0x217 PUSH2 0x392 CALLDATASIZE PUSH1 0x4 PUSH2 0x18F8 JUMP JUMPDEST PUSH2 0xB79 JUMP JUMPDEST PUSH2 0x23F PUSH2 0x3A5 CALLDATASIZE PUSH1 0x4 PUSH2 0x17CD JUMP JUMPDEST PUSH2 0xC34 JUMP JUMPDEST PUSH1 0x0 SLOAD PUSH1 0x1 PUSH1 0xA0 SHL SWAP1 DIV PUSH6 0xFFFFFFFFFFFF AND PUSH2 0x23F JUMP JUMPDEST PUSH2 0x217 PUSH2 0x3CF CALLDATASIZE PUSH1 0x4 PUSH2 0x1914 JUMP JUMPDEST PUSH2 0xC72 JUMP JUMPDEST PUSH2 0x49A PUSH2 0x3E2 CALLDATASIZE PUSH1 0x4 PUSH2 0x192F JUMP JUMPDEST PUSH1 0x40 DUP1 MLOAD PUSH1 0xA0 DUP2 ADD DUP3 MSTORE PUSH1 0x0 DUP1 DUP3 MSTORE PUSH1 0x20 DUP3 ADD DUP2 SWAP1 MSTORE SWAP2 DUP2 ADD DUP3 SWAP1 MSTORE PUSH1 0x60 DUP2 ADD DUP3 SWAP1 MSTORE PUSH1 0x80 DUP2 ADD SWAP2 SWAP1 SWAP2 MSTORE POP PUSH1 0x1 PUSH1 0x1 PUSH1 0xA0 SHL SUB SWAP2 SWAP1 SWAP2 AND PUSH1 0x0 SWAP1 DUP2 MSTORE PUSH1 0x2 PUSH1 0x20 SWAP1 DUP2 MSTORE PUSH1 0x40 DUP1 DUP4 KECCAK256 PUSH6 0xFFFFFFFFFFFF SWAP5 DUP6 AND DUP5 MSTORE DUP3 MSTORE SWAP2 DUP3 SWAP1 KECCAK256 DUP3 MLOAD PUSH1 0xA0 DUP2 ADD DUP5 MSTORE DUP2 SLOAD SWAP5 DUP6 AND DUP2 MSTORE PUSH1 0x1 PUSH1 0x30 SHL DUP6 DIV PUSH5 0xFFFFFFFFFF SWAP1 DUP2 AND SWAP4 DUP3 ADD SWAP4 SWAP1 SWAP4 MSTORE PUSH1 0x1 PUSH1 0x58 SHL DUP6 DIV DUP4 AND SWAP4 DUP2 ADD SWAP4 SWAP1 SWAP4 MSTORE PUSH1 0x1 PUSH1 0x80 SHL SWAP1 SWAP4 DIV PUSH1 0x1 PUSH1 0x1 PUSH1 0x70 SHL SUB AND PUSH1 0x60 DUP4 ADD MSTORE PUSH1 0x1 SWAP1 SWAP3 ADD SLOAD SWAP1 SWAP2 AND PUSH1 0x80 DUP3 ADD MSTORE SWAP1 JUMP JUMPDEST PUSH1 0x40 MLOAD PUSH2 0x1FB SWAP2 SWAP1 PUSH1 0x0 PUSH1 0xA0 DUP3 ADD SWAP1 POP PUSH6 0xFFFFFFFFFFFF DUP4 MLOAD AND DUP3 MSTORE PUSH1 0x20 DUP4 ADD MLOAD PUSH5 0xFFFFFFFFFF DUP1 DUP3 AND PUSH1 0x20 DUP6 ADD MSTORE DUP1 PUSH1 0x40 DUP7 ADD MLOAD AND PUSH1 0x40 DUP6 ADD MSTORE PUSH1 0x1 PUSH1 0x1 PUSH1 0x70 SHL SUB PUSH1 0x60 DUP7 ADD MLOAD AND PUSH1 0x60 DUP6 ADD MSTORE DUP1 PUSH1 0x80 DUP7 ADD MLOAD AND PUSH1 0x80 DUP6 ADD MSTORE POP POP SWAP3 SWAP2 POP POP JUMP JUMPDEST PUSH32 0x0 PUSH8 0xFFFFFFFFFFFFFFFF AND PUSH2 0x23F JUMP JUMPDEST PUSH32 0x0 PUSH2 0x306 JUMP JUMPDEST DUP3 DUP2 EQ PUSH2 0x572 JUMPI PUSH1 0x40 MLOAD PUSH4 0xE914A065 PUSH1 0xE0 SHL DUP2 MSTORE PUSH1 0x4 ADD PUSH1 0x40 MLOAD DUP1 SWAP2 SUB SWAP1 REVERT JUMPDEST PUSH1 0x0 JUMPDEST DUP4 DUP2 LT ISZERO PUSH2 0x5D6 JUMPI PUSH2 0x5CE DUP6 DUP6 DUP4 DUP2 DUP2 LT PUSH2 0x592 JUMPI PUSH2 0x592 PUSH2 0x1959 JUMP JUMPDEST SWAP1 POP PUSH1 0x20 MUL ADD PUSH1 0x20 DUP2 ADD SWAP1 PUSH2 0x5A7 SWAP2 SWAP1 PUSH2 0x1810 JUMP JUMPDEST DUP5 DUP5 DUP5 DUP2 DUP2 LT PUSH2 0x5B9 JUMPI PUSH2 0x5B9 PUSH2 0x1959 JUMP JUMPDEST SWAP1 POP PUSH1 0x20 MUL ADD PUSH1 0x20 DUP2 ADD SWAP1 PUSH2 0x392 SWAP2 SWAP1 PUSH2 0x196F JUMP JUMPDEST PUSH1 0x1 ADD PUSH2 0x575 JUMP JUMPDEST POP POP POP POP POP JUMP JUMPDEST DUP1 DUP4 EQ PUSH2 0x5FD JUMPI PUSH1 0x40 MLOAD PUSH4 0xEB52E125 PUSH1 0xE0 SHL DUP2 MSTORE PUSH1 0x4 ADD PUSH1 0x40 MLOAD DUP1 SWAP2 SUB SWAP1 REVERT JUMPDEST PUSH1 0x0 JUMPDEST PUSH6 0xFFFFFFFFFFFF DUP2 AND DUP5 GT ISZERO PUSH2 0x5D6 JUMPI PUSH2 0x671 DUP6 DUP6 DUP4 PUSH6 0xFFFFFFFFFFFF AND DUP2 DUP2 LT PUSH2 0x62D JUMPI PUSH2 0x62D PUSH2 0x1959 JUMP JUMPDEST SWAP1 POP PUSH1 0x20 MUL ADD PUSH1 0x20 DUP2 ADD SWAP1 PUSH2 0x642 SWAP2 SWAP1 PUSH2 0x1841 JUMP JUMPDEST DUP5 DUP5 DUP5 PUSH6 0xFFFFFFFFFFFF AND DUP2 DUP2 LT PUSH2 0x65C JUMPI PUSH2 0x65C PUSH2 0x1959 JUMP JUMPDEST SWAP1 POP PUSH1 0x20 MUL ADD PUSH1 0x20 DUP2 ADD SWAP1 PUSH2 0x346 SWAP2 SWAP1 PUSH2 0x1810 JUMP JUMPDEST DUP1 PUSH2 0x67B DUP2 PUSH2 0x19A0 JUMP JUMPDEST SWAP2 POP POP PUSH2 0x600 JUMP JUMPDEST PUSH1 0x0 DUP1 PUSH2 0x696 PUSH2 0x693 DUP5 DUP8 PUSH2 0x19C5 JUMP JUMPDEST SWAP1 JUMP JUMPDEST SWAP1 POP PUSH1 0x0 PUSH2 0x6A6 DUP6 JUMPDEST DUP4 SWAP1 PUSH2 0xCB5 JUMP JUMPDEST SWAP1 POP DUP1 JUMPDEST SWAP7 SWAP6 POP POP POP POP POP POP JUMP JUMPDEST PUSH2 0x6BC PUSH2 0xCCB JUMP JUMPDEST PUSH1 0x1 DUP1 SLOAD PUSH1 0x1 PUSH1 0x1 PUSH1 0x70 SHL SUB SWAP1 SWAP3 AND PUSH1 0x1 PUSH1 0x70 SHL MUL PUSH14 0xFFFFFFFFFFFFFFFFFFFFFFFFFFFF PUSH1 0x70 SHL NOT SWAP1 SWAP3 AND SWAP2 SWAP1 SWAP2 OR SWAP1 SSTORE JUMP JUMPDEST CALLER PUSH1 0x0 SWAP1 DUP2 MSTORE PUSH1 0x2 PUSH1 0x20 SWAP1 DUP2 MSTORE PUSH1 0x40 DUP1 DUP4 KECCAK256 PUSH6 0xFFFFFFFFFFFF DUP6 AND DUP5 MSTORE SWAP1 SWAP2 MSTORE DUP2 KECCAK256 SLOAD DUP3 SWAP2 PUSH1 0x1 PUSH1 0x80 SHL SWAP1 SWAP2 DIV PUSH1 0x1 PUSH1 0x1 PUSH1 0x70 SHL SUB AND SWAP1 SUB PUSH2 0x744 JUMPI PUSH1 0x40 MLOAD PUSH4 0xCA74CAA3 PUSH1 0xE0 SHL DUP2 MSTORE PUSH1 0x4 ADD PUSH1 0x40 MLOAD DUP1 SWAP2 SUB SWAP1 REVERT JUMPDEST CALLER PUSH1 0x0 SWAP1 DUP2 MSTORE PUSH1 0x2 PUSH1 0x20 SWAP1 DUP2 MSTORE PUSH1 0x40 DUP1 DUP4 KECCAK256 PUSH6 0xFFFFFFFFFFFF DUP7 AND DUP1 DUP6 MSTORE SWAP3 MSTORE DUP3 KECCAK256 SLOAD SWAP1 SWAP2 PUSH5 0xFFFFFFFFFF PUSH1 0x1 PUSH1 0x30 SHL DUP4 DIV DUP2 AND SWAP3 PUSH1 0x1 PUSH1 0x58 SHL SWAP1 DIV AND SWAP1 PUSH2 0x78C DUP4 TIMESTAMP PUSH2 0x19DC JUMP JUMPDEST SWAP1 POP DUP2 DUP2 LT ISZERO PUSH2 0x7AF JUMPI PUSH1 0x40 MLOAD PUSH4 0xE1D0091F PUSH1 0xE0 SHL DUP2 MSTORE PUSH1 0x4 ADD PUSH1 0x40 MLOAD DUP1 SWAP2 SUB SWAP1 REVERT JUMPDEST PUSH2 0x7B8 DUP7 PUSH2 0xCF8 JUMP JUMPDEST POP POP POP POP POP POP JUMP JUMPDEST CALLER PUSH1 0x0 SWAP1 DUP2 MSTORE PUSH1 0x2 PUSH1 0x20 SWAP1 DUP2 MSTORE PUSH1 0x40 DUP1 DUP4 KECCAK256 PUSH6 0xFFFFFFFFFFFF DUP6 AND DUP5 MSTORE SWAP1 SWAP2 MSTORE DUP2 KECCAK256 SLOAD DUP3 SWAP2 PUSH1 0x1 PUSH1 0x80 SHL SWAP1 SWAP2 DIV PUSH1 0x1 PUSH1 0x1 PUSH1 0x70 SHL SUB AND SWAP1 SUB PUSH2 0x815 JUMPI PUSH1 0x40 MLOAD PUSH4 0xCA74CAA3 PUSH1 0xE0 SHL DUP2 MSTORE PUSH1 0x4 ADD PUSH1 0x40 MLOAD DUP1 SWAP2 SUB SWAP1 REVERT JUMPDEST PUSH2 0x81E DUP3 PUSH2 0xE75 JUMP JUMPDEST POP POP JUMP JUMPDEST PUSH2 0x82A PUSH2 0xCCB JUMP JUMPDEST PUSH2 0x834 PUSH1 0x0 PUSH2 0x103B JUMP JUMPDEST JUMP JUMPDEST CALLER PUSH1 0x0 SWAP1 DUP2 MSTORE PUSH1 0x2 PUSH1 0x20 SWAP1 DUP2 MSTORE PUSH1 0x40 DUP1 DUP4 KECCAK256 PUSH6 0xFFFFFFFFFFFF DUP7 AND DUP5 MSTORE SWAP1 SWAP2 MSTORE DUP2 KECCAK256 SLOAD DUP4 SWAP2 PUSH1 0x1 PUSH1 0x80 SHL SWAP1 SWAP2 DIV PUSH1 0x1 PUSH1 0x1 PUSH1 0x70 SHL SUB AND SWAP1 SUB PUSH2 0x88B JUMPI PUSH1 0x40 MLOAD PUSH4 0xCA74CAA3 PUSH1 0xE0 SHL DUP2 MSTORE PUSH1 0x4 ADD PUSH1 0x40 MLOAD DUP1 SWAP2 SUB SWAP1 REVERT JUMPDEST DUP2 PUSH1 0x1 PUSH1 0x1 PUSH1 0x70 SHL SUB AND DUP1 PUSH1 0x0 SUB PUSH2 0x8B6 JUMPI PUSH1 0x40 MLOAD PUSH4 0xD446E6D9 PUSH1 0xE0 SHL DUP2 MSTORE PUSH1 0x4 ADD PUSH1 0x40 MLOAD DUP1 SWAP2 SUB SWAP1 REVERT JUMPDEST CALLER PUSH1 0x0 SWAP1 DUP2 MSTORE PUSH1 0x2 PUSH1 0x20 SWAP1 DUP2 MSTORE PUSH1 0x40 DUP1 DUP4 KECCAK256 PUSH6 0xFFFFFFFFFFFF DUP9 AND DUP1 DUP6 MSTORE SWAP3 MSTORE DUP3 KECCAK256 SLOAD SWAP1 SWAP2 PUSH5 0xFFFFFFFFFF PUSH1 0x1 PUSH1 0x30 SHL DUP4 DIV DUP2 AND SWAP3 PUSH1 0x1 PUSH1 0x58 SHL SWAP1 DIV AND SWAP1 PUSH2 0x8FE DUP4 TIMESTAMP PUSH2 0x19DC JUMP JUMPDEST SWAP1 POP DUP2 DUP2 LT ISZERO PUSH2 0x921 JUMPI PUSH1 0x40 MLOAD PUSH4 0xE1D0091F PUSH1 0xE0 SHL DUP2 MSTORE PUSH1 0x4 ADD PUSH1 0x40 MLOAD DUP1 SWAP2 SUB SWAP1 REVERT JUMPDEST PUSH2 0x92B DUP9 DUP9 PUSH2 0x108B JUMP JUMPDEST POP POP POP POP POP POP POP POP JUMP JUMPDEST PUSH1 0x1 PUSH1 0x1 PUSH1 0xA0 SHL SUB DUP2 AND PUSH1 0x0 SWAP1 DUP2 MSTORE PUSH1 0x2 PUSH1 0x20 SWAP1 DUP2 MSTORE PUSH1 0x40 DUP1 DUP4 KECCAK256 PUSH6 0xFFFFFFFFFFFF DUP7 AND DUP5 MSTORE SWAP1 SWAP2 MSTORE DUP2 KECCAK256 SLOAD PUSH1 0x1 PUSH1 0x80 SHL SWAP1 DIV PUSH1 0x1 PUSH1 0x1 PUSH1 0x70 SHL SUB AND DUP2 SUB PUSH2 0x990 JUMPI PUSH1 0x40 MLOAD PUSH4 0xCA74CAA3 PUSH1 0xE0 SHL DUP2 MSTORE PUSH1 0x4 ADD PUSH1 0x40 MLOAD DUP1 SWAP2 SUB SWAP1 REVERT JUMPDEST PUSH1 0x1 PUSH1 0x1 PUSH1 0xA0 SHL SUB DUP3 AND PUSH1 0x0 SWAP1 DUP2 MSTORE PUSH1 0x2 PUSH1 0x20 SWAP1 DUP2 MSTORE PUSH1 0x40 DUP1 DUP4 KECCAK256 PUSH6 0xFFFFFFFFFFFF DUP8 AND DUP5 MSTORE SWAP1 SWAP2 MSTORE DUP2 KECCAK256 PUSH1 0x1 DUP2 ADD SLOAD SWAP1 SWAP2 SWAP1 PUSH2 0x9D4 SWAP1 PUSH5 0xFFFFFFFFFF AND TIMESTAMP PUSH2 0x19DC JUMP JUMPDEST DUP3 SLOAD SWAP1 SWAP2 POP PUSH1 0x0 SWAP1 PUSH2 0xA22 SWAP1 PUSH32 0x0 PUSH8 0xFFFFFFFFFFFFFFFF AND SWAP1 PUSH1 0x1 PUSH1 0x80 SHL SWAP1 DIV PUSH1 0x1 PUSH1 0x1 PUSH1 0x70 SHL SUB AND DUP5 PUSH2 0xC34 JUMP JUMPDEST SWAP4 POP POP POP POP JUMPDEST SWAP3 SWAP2 POP POP JUMP JUMPDEST PUSH2 0xA36 PUSH2 0xCCB JUMP JUMPDEST PUSH1 0x1 DUP1 SLOAD PUSH14 0xFFFFFFFFFFFFFFFFFFFFFFFFFFFF NOT AND PUSH1 0x1 PUSH1 0x1 PUSH1 0x70 SHL SUB SWAP3 SWAP1 SWAP3 AND SWAP2 SWAP1 SWAP2 OR SWAP1 SSTORE JUMP JUMPDEST CALLER PUSH1 0x0 SWAP1 DUP2 MSTORE PUSH1 0x2 PUSH1 0x20 SWAP1 DUP2 MSTORE PUSH1 0x40 DUP1 DUP4 KECCAK256 PUSH6 0xFFFFFFFFFFFF DUP7 AND DUP5 MSTORE SWAP1 SWAP2 MSTORE DUP2 KECCAK256 SLOAD DUP4 SWAP2 PUSH1 0x1 PUSH1 0x80 SHL SWAP1 SWAP2 DIV PUSH1 0x1 PUSH1 0x1 PUSH1 0x70 SHL SUB AND SWAP1 SUB PUSH2 0xAB4 JUMPI PUSH1 0x40 MLOAD PUSH4 0xCA74CAA3 PUSH1 0xE0 SHL DUP2 MSTORE PUSH1 0x4 ADD PUSH1 0x40 MLOAD DUP1 SWAP2 SUB SWAP1 REVERT JUMPDEST CALLER PUSH1 0x0 SWAP1 DUP2 MSTORE PUSH1 0x2 PUSH1 0x20 SWAP1 DUP2 MSTORE PUSH1 0x40 DUP1 DUP4 KECCAK256 PUSH6 0xFFFFFFFFFFFF DUP8 AND DUP1 DUP6 MSTORE SWAP3 MSTORE DUP3 KECCAK256 SLOAD SWAP1 SWAP2 PUSH5 0xFFFFFFFFFF PUSH1 0x1 PUSH1 0x30 SHL DUP4 DIV DUP2 AND SWAP3 PUSH1 0x1 PUSH1 0x58 SHL SWAP1 DIV AND SWAP1 PUSH2 0xAFC DUP4 TIMESTAMP PUSH2 0x19DC JUMP JUMPDEST SWAP1 POP DUP2 DUP2 LT ISZERO PUSH2 0xB1F JUMPI PUSH1 0x40 MLOAD PUSH4 0xE1D0091F PUSH1 0xE0 SHL DUP2 MSTORE PUSH1 0x4 ADD PUSH1 0x40 MLOAD DUP1 SWAP2 SUB SWAP1 REVERT JUMPDEST DUP6 PUSH5 0xFFFFFFFFFF AND PUSH32 0x0 PUSH5 0xFFFFFFFFFF AND DUP2 LT ISZERO PUSH2 0xB6F JUMPI PUSH1 0x40 MLOAD PUSH4 0x1CB2298F PUSH1 0xE0 SHL DUP2 MSTORE PUSH1 0x4 ADD PUSH1 0x40 MLOAD DUP1 SWAP2 SUB SWAP1 REVERT JUMPDEST PUSH2 0x92B DUP9 DUP9 PUSH2 0x1223 JUMP JUMPDEST PUSH1 0x1 PUSH1 0x1 PUSH1 0x70 SHL SUB DUP3 AND DUP1 ISZERO DUP1 PUSH2 0xB9A JUMPI POP PUSH1 0x1 SLOAD PUSH1 0x1 PUSH1 0x1 PUSH1 0x70 SHL SUB AND DUP2 LT JUMPDEST DUP1 PUSH2 0xBB6 JUMPI POP PUSH1 0x1 SLOAD PUSH1 0x1 PUSH1 0x70 SHL SWAP1 DIV PUSH1 0x1 PUSH1 0x1 PUSH1 0x70 SHL SUB AND DUP2 GT JUMPDEST ISZERO PUSH2 0xBD4 JUMPI PUSH1 0x40 MLOAD PUSH4 0xE2590D0B PUSH1 0xE0 SHL DUP2 MSTORE PUSH1 0x4 ADD PUSH1 0x40 MLOAD DUP1 SWAP2 SUB SWAP1 REVERT JUMPDEST DUP2 PUSH5 0xFFFFFFFFFF AND PUSH32 0x0 PUSH5 0xFFFFFFFFFF AND DUP2 LT ISZERO PUSH2 0xC24 JUMPI PUSH1 0x40 MLOAD PUSH4 0x1CB2298F PUSH1 0xE0 SHL DUP2 MSTORE PUSH1 0x4 ADD PUSH1 0x40 MLOAD DUP1 SWAP2 SUB SWAP1 REVERT JUMPDEST PUSH2 0xC2E DUP5 DUP5 PUSH2 0x127E JUMP JUMPDEST POP POP POP POP JUMP JUMPDEST PUSH1 0x0 DUP1 PUSH2 0xC44 PUSH2 0x693 DUP5 DUP8 PUSH2 0x19C5 JUMP JUMPDEST SWAP1 POP PUSH1 0x0 PUSH2 0xC5A PUSH8 0xDE0B6B3A7640000 DUP4 PUSH2 0x1550 JUMP JUMPDEST SWAP1 POP PUSH1 0x0 PUSH2 0xC67 DUP7 PUSH2 0x69F JUMP JUMPDEST SWAP8 SWAP7 POP POP POP POP POP POP POP JUMP JUMPDEST PUSH2 0xC7A PUSH2 0xCCB JUMP JUMPDEST PUSH1 0x1 PUSH1 0x1 PUSH1 0xA0 SHL SUB DUP2 AND PUSH2 0xCA9 JUMPI PUSH1 0x40 MLOAD PUSH4 0x1E4FBDF7 PUSH1 0xE0 SHL DUP2 MSTORE PUSH1 0x0 PUSH1 0x4 DUP3 ADD MSTORE PUSH1 0x24 ADD JUMPDEST PUSH1 0x40 MLOAD DUP1 SWAP2 SUB SWAP1 REVERT JUMPDEST PUSH2 0xCB2 DUP2 PUSH2 0x103B JUMP JUMPDEST POP JUMP JUMPDEST PUSH1 0x0 PUSH2 0xCC4 PUSH2 0x693 DUP5 DUP5 PUSH2 0x155F JUMP JUMPDEST SWAP4 SWAP3 POP POP POP JUMP JUMPDEST PUSH1 0x0 SLOAD PUSH1 0x1 PUSH1 0x1 PUSH1 0xA0 SHL SUB AND CALLER EQ PUSH2 0x834 JUMPI PUSH1 0x40 MLOAD PUSH4 0x118CDAA7 PUSH1 0xE0 SHL DUP2 MSTORE CALLER PUSH1 0x4 DUP3 ADD MSTORE PUSH1 0x24 ADD PUSH2 0xCA0 JUMP JUMPDEST CALLER PUSH1 0x0 SWAP1 DUP2 MSTORE PUSH1 0x2 PUSH1 0x20 SWAP1 DUP2 MSTORE PUSH1 0x40 DUP1 DUP4 KECCAK256 PUSH6 0xFFFFFFFFFFFF DUP6 AND DUP5 MSTORE SWAP1 SWAP2 MSTORE DUP2 KECCAK256 SWAP1 PUSH2 0xD24 DUP4 PUSH2 0x1615 JUMP JUMPDEST DUP3 SLOAD PUSH1 0x40 DUP1 MLOAD PUSH1 0x1 PUSH1 0x1 PUSH1 0x70 SHL SUB PUSH1 0x1 PUSH1 0x80 SHL DUP5 DIV AND DUP2 MSTORE PUSH5 0xFFFFFFFFFF PUSH1 0x1 PUSH1 0x58 SHL DUP5 DIV DUP2 AND PUSH1 0x20 DUP4 ADD MSTORE PUSH1 0x1 PUSH1 0x30 SHL SWAP1 SWAP4 DIV SWAP1 SWAP3 AND SWAP1 DUP3 ADD MSTORE TIMESTAMP PUSH1 0x60 DUP3 ADD MSTORE SWAP1 SWAP2 POP DUP2 SWAP1 PUSH6 0xFFFFFFFFFFFF DUP6 AND SWAP1 CALLER SWAP1 PUSH32 0x194C8D0132D20112211DFA71BB87A92766FDE4F4318E08EFD2CC4A6E188E509D SWAP1 PUSH1 0x80 ADD PUSH1 0x40 MLOAD DUP1 SWAP2 SUB SWAP1 LOG4 CALLER PUSH1 0x0 DUP2 DUP2 MSTORE PUSH1 0x2 PUSH1 0x20 SWAP1 DUP2 MSTORE PUSH1 0x40 DUP1 DUP4 KECCAK256 PUSH6 0xFFFFFFFFFFFF DUP9 AND DUP5 MSTORE SWAP1 SWAP2 MSTORE SWAP1 DUP2 SWAP1 KECCAK256 DUP1 SLOAD PUSH1 0x1 PUSH1 0x1 PUSH1 0xF0 SHL SUB NOT AND DUP2 SSTORE PUSH1 0x1 ADD DUP1 SLOAD PUSH5 0xFFFFFFFFFF NOT AND SWAP1 SSTORE MLOAD PUSH4 0xA9059CBB PUSH1 0xE0 SHL DUP2 MSTORE PUSH1 0x4 DUP2 ADD SWAP2 SWAP1 SWAP2 MSTORE PUSH1 0x24 DUP2 ADD DUP3 SWAP1 MSTORE PUSH1 0x1 PUSH1 0x1 PUSH1 0xA0 SHL SUB PUSH32 0x0 AND SWAP1 PUSH4 0xA9059CBB SWAP1 PUSH1 0x44 ADD PUSH1 0x20 PUSH1 0x40 MLOAD DUP1 DUP4 SUB DUP2 PUSH1 0x0 DUP8 GAS CALL ISZERO DUP1 ISZERO PUSH2 0xE51 JUMPI RETURNDATASIZE PUSH1 0x0 DUP1 RETURNDATACOPY RETURNDATASIZE PUSH1 0x0 REVERT JUMPDEST POP POP POP POP PUSH1 0x40 MLOAD RETURNDATASIZE PUSH1 0x1F NOT PUSH1 0x1F DUP3 ADD AND DUP3 ADD DUP1 PUSH1 0x40 MSTORE POP DUP2 ADD SWAP1 PUSH2 0xC2E SWAP2 SWAP1 PUSH2 0x19EF JUMP JUMPDEST CALLER PUSH1 0x0 SWAP1 DUP2 MSTORE PUSH1 0x2 PUSH1 0x20 SWAP1 DUP2 MSTORE PUSH1 0x40 DUP1 DUP4 KECCAK256 PUSH6 0xFFFFFFFFFFFF DUP6 AND DUP5 MSTORE SWAP1 SWAP2 MSTORE SWAP1 KECCAK256 PUSH1 0x1 DUP2 ADD SLOAD PUSH5 0xFFFFFFFFFF AND TIMESTAMP DUP2 SUB PUSH2 0xEC3 JUMPI PUSH1 0x40 MLOAD PUSH4 0x66ACE889 PUSH1 0xE1 SHL DUP2 MSTORE PUSH1 0x4 ADD PUSH1 0x40 MLOAD DUP1 SWAP2 SUB SWAP1 REVERT JUMPDEST DUP2 SLOAD PUSH1 0x0 SWAP1 PUSH2 0xF12 SWAP1 PUSH32 0x0 PUSH8 0xFFFFFFFFFFFFFFFF AND SWAP1 PUSH1 0x1 PUSH1 0x80 SHL SWAP1 DIV PUSH1 0x1 PUSH1 0x1 PUSH1 0x70 SHL SUB AND PUSH2 0x23A DUP6 TIMESTAMP PUSH2 0x19DC JUMP JUMPDEST DUP4 SLOAD SWAP1 SWAP2 POP DUP2 SWAP1 PUSH6 0xFFFFFFFFFFFF DUP7 AND SWAP1 CALLER SWAP1 PUSH32 0x25422894688294C003660DE40018F6E614B3D4EE4DFBEF2615CB5AD5C2E89110 SWAP1 PUSH1 0x1 PUSH1 0x80 SHL SWAP1 DIV PUSH1 0x1 PUSH1 0x1 PUSH1 0x70 SHL SUB AND PUSH2 0xF61 DUP8 TIMESTAMP PUSH2 0x19DC JUMP JUMPDEST PUSH1 0x40 DUP1 MLOAD PUSH1 0x1 PUSH1 0x1 PUSH1 0x70 SHL SUB SWAP1 SWAP4 AND DUP4 MSTORE PUSH1 0x20 DUP4 ADD SWAP2 SWAP1 SWAP2 MSTORE DUP2 ADD DUP8 SWAP1 MSTORE TIMESTAMP PUSH1 0x60 DUP3 ADD MSTORE PUSH1 0x80 ADD PUSH1 0x40 MLOAD DUP1 SWAP2 SUB SWAP1 LOG4 PUSH1 0x1 DUP4 ADD DUP1 SLOAD PUSH5 0xFFFFFFFFFF NOT AND TIMESTAMP PUSH5 0xFFFFFFFFFF AND OR SWAP1 SSTORE PUSH1 0x40 MLOAD PUSH4 0xA9059CBB PUSH1 0xE0 SHL DUP2 MSTORE CALLER PUSH1 0x4 DUP3 ADD MSTORE PUSH1 0x24 DUP2 ADD DUP3 SWAP1 MSTORE PUSH32 0x0 PUSH1 0x1 PUSH1 0x1 PUSH1 0xA0 SHL SUB AND SWAP1 PUSH4 0xA9059CBB SWAP1 PUSH1 0x44 ADD JUMPDEST PUSH1 0x20 PUSH1 0x40 MLOAD DUP1 DUP4 SUB DUP2 PUSH1 0x0 DUP8 GAS CALL ISZERO DUP1 ISZERO PUSH2 0x1017 JUMPI RETURNDATASIZE PUSH1 0x0 DUP1 RETURNDATACOPY RETURNDATASIZE PUSH1 0x0 REVERT JUMPDEST POP POP POP POP PUSH1 0x40 MLOAD RETURNDATASIZE PUSH1 0x1F NOT PUSH1 0x1F DUP3 ADD AND DUP3 ADD DUP1 PUSH1 0x40 MSTORE POP DUP2 ADD SWAP1 PUSH2 0x5D6 SWAP2 SWAP1 PUSH2 0x19EF JUMP JUMPDEST PUSH1 0x0 DUP1 SLOAD PUSH1 0x1 PUSH1 0x1 PUSH1 0xA0 SHL SUB DUP4 DUP2 AND PUSH1 0x1 PUSH1 0x1 PUSH1 0xA0 SHL SUB NOT DUP4 AND DUP2 OR DUP5 SSTORE PUSH1 0x40 MLOAD SWAP2 SWAP1 SWAP3 AND SWAP3 DUP4 SWAP2 PUSH32 0x8BE0079C531659141344CD1FD0A4F28419497F9722A3DAAFE3B4186F6B6457E0 SWAP2 SWAP1 LOG3 POP POP JUMP JUMPDEST CALLER PUSH1 0x0 SWAP1 DUP2 MSTORE PUSH1 0x2 PUSH1 0x20 SWAP1 DUP2 MSTORE PUSH1 0x40 DUP1 DUP4 KECCAK256 PUSH6 0xFFFFFFFFFFFF DUP7 AND DUP5 MSTORE SWAP1 SWAP2 MSTORE DUP2 KECCAK256 SWAP1 PUSH2 0x10B7 DUP5 PUSH2 0x1615 JUMP JUMPDEST SWAP1 POP DUP1 DUP4 PUSH1 0x1 PUSH1 0x1 PUSH1 0x70 SHL SUB AND GT ISZERO PUSH2 0x10E3 JUMPI PUSH1 0x40 MLOAD PUSH4 0x61BF8CED PUSH1 0xE1 SHL DUP2 MSTORE PUSH1 0x4 ADD PUSH1 0x40 MLOAD DUP1 SWAP2 SUB SWAP1 REVERT JUMPDEST DUP2 SLOAD PUSH1 0x40 DUP1 MLOAD PUSH1 0x1 PUSH1 0x1 PUSH1 0x70 SHL SUB PUSH1 0x1 PUSH1 0x80 SHL DUP5 DIV DUP2 AND DUP3 MSTORE PUSH5 0xFFFFFFFFFF PUSH1 0x1 PUSH1 0x58 SHL DUP6 DIV DUP2 AND PUSH1 0x20 DUP5 ADD MSTORE PUSH1 0x1 PUSH1 0x30 SHL SWAP1 SWAP5 DIV SWAP1 SWAP4 AND DUP2 DUP4 ADD MSTORE TIMESTAMP PUSH1 0x60 DUP3 ADD MSTORE SWAP1 MLOAD SWAP2 DUP6 AND SWAP2 PUSH6 0xFFFFFFFFFFFF DUP8 AND SWAP2 CALLER SWAP2 PUSH32 0x194C8D0132D20112211DFA71BB87A92766FDE4F4318E08EFD2CC4A6E188E509D SWAP2 PUSH1 0x80 SWAP1 DUP3 SWAP1 SUB ADD SWAP1 LOG4 DUP2 SLOAD PUSH1 0x1 PUSH1 0x1 PUSH1 0x70 SHL SUB PUSH1 0x1 PUSH1 0x80 SHL SWAP1 SWAP2 DIV DUP2 AND SWAP1 DUP5 AND LT ISZERO PUSH2 0x11C8 JUMPI DUP2 SLOAD DUP4 SWAP1 DUP4 SWAP1 PUSH1 0x10 SWAP1 PUSH2 0x11A3 SWAP1 DUP5 SWAP1 PUSH1 0x1 PUSH1 0x80 SHL SWAP1 DIV PUSH1 0x1 PUSH1 0x1 PUSH1 0x70 SHL SUB AND PUSH2 0x1A11 JUMP JUMPDEST SWAP3 POP PUSH2 0x100 EXP DUP2 SLOAD DUP2 PUSH1 0x1 PUSH1 0x1 PUSH1 0x70 SHL SUB MUL NOT AND SWAP1 DUP4 PUSH1 0x1 PUSH1 0x1 PUSH1 0x70 SHL SUB AND MUL OR SWAP1 SSTORE POP JUMPDEST PUSH1 0x40 MLOAD PUSH4 0xA9059CBB PUSH1 0xE0 SHL DUP2 MSTORE CALLER PUSH1 0x4 DUP3 ADD MSTORE PUSH1 0x1 PUSH1 0x1 PUSH1 0x70 SHL SUB DUP5 AND PUSH1 0x24 DUP3 ADD MSTORE PUSH32 0x0 PUSH1 0x1 PUSH1 0x1 PUSH1 0xA0 SHL SUB AND SWAP1 PUSH4 0xA9059CBB SWAP1 PUSH1 0x44 ADD PUSH2 0xFF8 JUMP JUMPDEST PUSH1 0x0 PUSH2 0x122E DUP4 PUSH2 0x1615 JUMP JUMPDEST CALLER PUSH1 0x0 SWAP1 DUP2 MSTORE PUSH1 0x2 PUSH1 0x20 SWAP1 DUP2 MSTORE PUSH1 0x40 DUP1 DUP4 KECCAK256 PUSH6 0xFFFFFFFFFFFF DUP9 AND DUP5 MSTORE SWAP1 SWAP2 MSTORE SWAP1 KECCAK256 DUP1 SLOAD PUSH1 0x1 PUSH1 0x1 PUSH1 0xF0 SHL SUB NOT AND DUP2 SSTORE PUSH1 0x1 ADD DUP1 SLOAD PUSH5 0xFFFFFFFFFF NOT AND SWAP1 SSTORE SWAP1 POP PUSH2 0x1279 DUP2 DUP4 PUSH2 0x127E JUMP JUMPDEST POP POP POP JUMP JUMPDEST PUSH1 0x0 DUP1 PUSH1 0x14 SWAP1 SLOAD SWAP1 PUSH2 0x100 EXP SWAP1 DIV PUSH6 0xFFFFFFFFFFFF AND SWAP1 POP PUSH1 0x40 MLOAD DUP1 PUSH1 0xA0 ADD PUSH1 0x40 MSTORE DUP1 DUP3 PUSH6 0xFFFFFFFFFFFF AND DUP2 MSTORE PUSH1 0x20 ADD TIMESTAMP PUSH5 0xFFFFFFFFFF AND DUP2 MSTORE PUSH1 0x20 ADD DUP4 PUSH5 0xFFFFFFFFFF AND DUP2 MSTORE PUSH1 0x20 ADD DUP5 PUSH1 0x1 PUSH1 0x1 PUSH1 0x70 SHL SUB AND DUP2 MSTORE PUSH1 0x20 ADD TIMESTAMP PUSH5 0xFFFFFFFFFF AND DUP2 MSTORE POP PUSH1 0x2 PUSH1 0x0 CALLER PUSH1 0x1 PUSH1 0x1 PUSH1 0xA0 SHL SUB AND PUSH1 0x1 PUSH1 0x1 PUSH1 0xA0 SHL SUB AND DUP2 MSTORE PUSH1 0x20 ADD SWAP1 DUP2 MSTORE PUSH1 0x20 ADD PUSH1 0x0 KECCAK256 PUSH1 0x0 DUP4 PUSH6 0xFFFFFFFFFFFF AND PUSH8 0xFFFFFFFFFFFFFFFF AND DUP2 MSTORE PUSH1 0x20 ADD SWAP1 DUP2 MSTORE PUSH1 0x20 ADD PUSH1 0x0 KECCAK256 PUSH1 0x0 DUP3 ADD MLOAD DUP2 PUSH1 0x0 ADD PUSH1 0x0 PUSH2 0x100 EXP DUP2 SLOAD DUP2 PUSH6 0xFFFFFFFFFFFF MUL NOT AND SWAP1 DUP4 PUSH6 0xFFFFFFFFFFFF AND MUL OR SWAP1 SSTORE POP PUSH1 0x20 DUP3 ADD MLOAD DUP2 PUSH1 0x0 ADD PUSH1 0x6 PUSH2 0x100 EXP DUP2 SLOAD DUP2 PUSH5 0xFFFFFFFFFF MUL NOT AND SWAP1 DUP4 PUSH5 0xFFFFFFFFFF AND MUL OR SWAP1 SSTORE POP PUSH1 0x40 DUP3 ADD MLOAD DUP2 PUSH1 0x0 ADD PUSH1 0xB PUSH2 0x100 EXP DUP2 SLOAD DUP2 PUSH5 0xFFFFFFFFFF MUL NOT AND SWAP1 DUP4 PUSH5 0xFFFFFFFFFF AND MUL OR SWAP1 SSTORE POP PUSH1 0x60 DUP3 ADD MLOAD DUP2 PUSH1 0x0 ADD PUSH1 0x10 PUSH2 0x100 EXP DUP2 SLOAD DUP2 PUSH1 0x1 PUSH1 0x1 PUSH1 0x70 SHL SUB MUL NOT AND SWAP1 DUP4 PUSH1 0x1 PUSH1 0x1 PUSH1 0x70 SHL SUB AND MUL OR SWAP1 SSTORE POP PUSH1 0x80 DUP3 ADD MLOAD DUP2 PUSH1 0x1 ADD PUSH1 0x0 PUSH2 0x100 EXP DUP2 SLOAD DUP2 PUSH5 0xFFFFFFFFFF MUL NOT AND SWAP1 DUP4 PUSH5 0xFFFFFFFFFF AND MUL OR SWAP1 SSTORE POP SWAP1 POP POP DUP3 PUSH1 0x1 PUSH1 0x1 PUSH1 0x70 SHL SUB AND DUP2 PUSH6 0xFFFFFFFFFFFF AND CALLER PUSH1 0x1 PUSH1 0x1 PUSH1 0xA0 SHL SUB AND PUSH32 0x2720EFA4B2DD4F3F8A347DA3CBD290A522E9432DA9072C5B8E6300496FDDE282 DUP6 TIMESTAMP PUSH1 0x40 MLOAD PUSH2 0x1461 SWAP3 SWAP2 SWAP1 PUSH5 0xFFFFFFFFFF SWAP3 SWAP1 SWAP3 AND DUP3 MSTORE PUSH1 0x20 DUP3 ADD MSTORE PUSH1 0x40 ADD SWAP1 JUMP JUMPDEST PUSH1 0x40 MLOAD DUP1 SWAP2 SUB SWAP1 LOG4 PUSH1 0x40 MLOAD PUSH4 0x23B872DD PUSH1 0xE0 SHL DUP2 MSTORE CALLER PUSH1 0x4 DUP3 ADD MSTORE ADDRESS PUSH1 0x24 DUP3 ADD MSTORE PUSH1 0x1 PUSH1 0x1 PUSH1 0x70 SHL SUB DUP5 AND PUSH1 0x44 DUP3 ADD MSTORE PUSH32 0x0 PUSH1 0x1 PUSH1 0x1 PUSH1 0xA0 SHL SUB AND SWAP1 PUSH4 0x23B872DD SWAP1 PUSH1 0x64 ADD PUSH1 0x20 PUSH1 0x40 MLOAD DUP1 DUP4 SUB DUP2 PUSH1 0x0 DUP8 GAS CALL ISZERO DUP1 ISZERO PUSH2 0x14E4 JUMPI RETURNDATASIZE PUSH1 0x0 DUP1 RETURNDATACOPY RETURNDATASIZE PUSH1 0x0 REVERT JUMPDEST POP POP POP POP PUSH1 0x40 MLOAD RETURNDATASIZE PUSH1 0x1F NOT PUSH1 0x1F DUP3 ADD AND DUP3 ADD DUP1 PUSH1 0x40 MSTORE POP DUP2 ADD SWAP1 PUSH2 0x1508 SWAP2 SWAP1 PUSH2 0x19EF JUMP JUMPDEST POP PUSH1 0x0 DUP1 SLOAD PUSH1 0x1 PUSH1 0xA0 SHL SWAP1 DIV PUSH6 0xFFFFFFFFFFFF AND SWAP1 PUSH1 0x14 PUSH2 0x1528 DUP4 PUSH2 0x19A0 JUMP JUMPDEST SWAP2 SWAP1 PUSH2 0x100 EXP DUP2 SLOAD DUP2 PUSH6 0xFFFFFFFFFFFF MUL NOT AND SWAP1 DUP4 PUSH6 0xFFFFFFFFFFFF AND MUL OR SWAP1 SSTORE POP POP POP POP POP JUMP JUMPDEST PUSH1 0x0 PUSH2 0xCC4 PUSH2 0x693 DUP4 DUP6 PUSH2 0x1A38 JUMP JUMPDEST PUSH1 0x0 DUP1 DUP1 PUSH1 0x0 NOT DUP5 DUP7 MULMOD DUP5 DUP7 MUL SWAP3 POP DUP3 DUP2 LT DUP4 DUP3 SUB SUB SWAP2 POP POP DUP1 PUSH1 0x0 SUB PUSH2 0x1593 JUMPI POP PUSH8 0xDE0B6B3A7640000 SWAP1 DIV SWAP1 POP PUSH2 0xA28 JUMP JUMPDEST PUSH8 0xDE0B6B3A7640000 DUP2 LT PUSH2 0x15C5 JUMPI PUSH1 0x40 MLOAD PUSH4 0x5173648D PUSH1 0xE0 SHL DUP2 MSTORE PUSH1 0x4 DUP2 ADD DUP7 SWAP1 MSTORE PUSH1 0x24 DUP2 ADD DUP6 SWAP1 MSTORE PUSH1 0x44 ADD PUSH2 0xCA0 JUMP JUMPDEST PUSH1 0x0 PUSH8 0xDE0B6B3A7640000 DUP6 DUP8 MULMOD PUSH3 0x40000 DUP2 DUP6 SUB DIV SWAP4 LT SWAP1 SWAP2 SUB PUSH1 0x1 PUSH1 0xEE SHL MUL SWAP2 SWAP1 SWAP2 OR PUSH32 0xACCB18165BD6FE31AE1CF318DC5B51EEE0E1BA569B88CD74C1773B91FAC10669 MUL SWAP2 POP POP SWAP3 SWAP2 POP POP JUMP JUMPDEST CALLER PUSH1 0x0 SWAP1 DUP2 MSTORE PUSH1 0x2 PUSH1 0x20 SWAP1 DUP2 MSTORE PUSH1 0x40 DUP1 DUP4 KECCAK256 PUSH6 0xFFFFFFFFFFFF DUP6 AND DUP5 MSTORE SWAP1 SWAP2 MSTORE DUP2 KECCAK256 PUSH1 0x1 DUP2 ADD SLOAD PUSH5 0xFFFFFFFFFF AND DUP3 PUSH2 0x164E DUP3 TIMESTAMP PUSH2 0x19DC JUMP JUMPDEST PUSH1 0x1 DUP5 ADD DUP1 SLOAD PUSH5 0xFFFFFFFFFF NOT AND TIMESTAMP PUSH5 0xFFFFFFFFFF AND OR SWAP1 SSTORE DUP4 SLOAD SWAP1 SWAP2 POP PUSH1 0x0 SWAP1 PUSH2 0x6AA SWAP1 PUSH32 0x0 PUSH8 0xFFFFFFFFFFFFFFFF AND SWAP1 PUSH1 0x1 PUSH1 0x80 SHL SWAP1 DIV PUSH1 0x1 PUSH1 0x1 PUSH1 0x70 SHL SUB AND DUP5 PUSH2 0xC34 JUMP JUMPDEST DUP1 CALLDATALOAD PUSH1 0x1 PUSH1 0x1 PUSH1 0xA0 SHL SUB DUP2 AND DUP2 EQ PUSH2 0x16CC JUMPI PUSH1 0x0 DUP1 REVERT JUMPDEST SWAP2 SWAP1 POP JUMP JUMPDEST PUSH1 0x0 DUP1 PUSH1 0x40 DUP4 DUP6 SUB SLT ISZERO PUSH2 0x16E4 JUMPI PUSH1 0x0 DUP1 REVERT JUMPDEST PUSH2 0x16ED DUP4 PUSH2 0x16B5 JUMP JUMPDEST SWAP2 POP PUSH1 0x20 DUP4 ADD CALLDATALOAD PUSH8 0xFFFFFFFFFFFFFFFF DUP2 AND DUP2 EQ PUSH2 0x170A JUMPI PUSH1 0x0 DUP1 REVERT JUMPDEST DUP1 SWAP2 POP POP SWAP3 POP SWAP3 SWAP1 POP JUMP JUMPDEST PUSH1 0x0 DUP1 DUP4 PUSH1 0x1F DUP5 ADD SLT PUSH2 0x1727 JUMPI PUSH1 0x0 DUP1 REVERT JUMPDEST POP DUP2 CALLDATALOAD PUSH8 0xFFFFFFFFFFFFFFFF DUP2 GT ISZERO PUSH2 0x173F JUMPI PUSH1 0x0 DUP1 REVERT JUMPDEST PUSH1 0x20 DUP4 ADD SWAP2 POP DUP4 PUSH1 0x20 DUP3 PUSH1 0x5 SHL DUP6 ADD ADD GT ISZERO PUSH2 0x175A JUMPI PUSH1 0x0 DUP1 REVERT JUMPDEST SWAP3 POP SWAP3 SWAP1 POP JUMP JUMPDEST PUSH1 0x0 DUP1 PUSH1 0x0 DUP1 PUSH1 0x40 DUP6 DUP8 SUB SLT ISZERO PUSH2 0x1777 JUMPI PUSH1 0x0 DUP1 REVERT JUMPDEST DUP5 CALLDATALOAD PUSH8 0xFFFFFFFFFFFFFFFF DUP1 DUP3 GT ISZERO PUSH2 0x178F JUMPI PUSH1 0x0 DUP1 REVERT JUMPDEST PUSH2 0x179B DUP9 DUP4 DUP10 ADD PUSH2 0x1715 JUMP JUMPDEST SWAP1 SWAP7 POP SWAP5 POP PUSH1 0x20 DUP8 ADD CALLDATALOAD SWAP2 POP DUP1 DUP3 GT ISZERO PUSH2 0x17B4 JUMPI PUSH1 0x0 DUP1 REVERT JUMPDEST POP PUSH2 0x17C1 DUP8 DUP3 DUP9 ADD PUSH2 0x1715 JUMP JUMPDEST SWAP6 SWAP9 SWAP5 SWAP8 POP SWAP6 POP POP POP POP JUMP JUMPDEST PUSH1 0x0 DUP1 PUSH1 0x0 PUSH1 0x60 DUP5 DUP7 SUB SLT ISZERO PUSH2 0x17E2 JUMPI PUSH1 0x0 DUP1 REVERT JUMPDEST POP POP DUP2 CALLDATALOAD SWAP4 PUSH1 0x20 DUP4 ADD CALLDATALOAD SWAP4 POP PUSH1 0x40 SWAP1 SWAP3 ADD CALLDATALOAD SWAP2 SWAP1 POP JUMP JUMPDEST DUP1 CALLDATALOAD PUSH1 0x1 PUSH1 0x1 PUSH1 0x70 SHL SUB DUP2 AND DUP2 EQ PUSH2 0x16CC JUMPI PUSH1 0x0 DUP1 REVERT JUMPDEST PUSH1 0x0 PUSH1 0x20 DUP3 DUP5 SUB SLT ISZERO PUSH2 0x1822 JUMPI PUSH1 0x0 DUP1 REVERT JUMPDEST PUSH2 0xCC4 DUP3 PUSH2 0x17F9 JUMP JUMPDEST DUP1 CALLDATALOAD PUSH6 0xFFFFFFFFFFFF DUP2 AND DUP2 EQ PUSH2 0x16CC JUMPI PUSH1 0x0 DUP1 REVERT JUMPDEST PUSH1 0x0 PUSH1 0x20 DUP3 DUP5 SUB SLT ISZERO PUSH2 0x1853 JUMPI PUSH1 0x0 DUP1 REVERT JUMPDEST PUSH2 0xCC4 DUP3 PUSH2 0x182B JUMP JUMPDEST PUSH1 0x0 DUP1 PUSH1 0x40 DUP4 DUP6 SUB SLT ISZERO PUSH2 0x186F JUMPI PUSH1 0x0 DUP1 REVERT JUMPDEST PUSH2 0x1878 DUP4 PUSH2 0x182B JUMP JUMPDEST SWAP2 POP PUSH2 0x1886 PUSH1 0x20 DUP5 ADD PUSH2 0x17F9 JUMP JUMPDEST SWAP1 POP SWAP3 POP SWAP3 SWAP1 POP JUMP JUMPDEST PUSH1 0x0 DUP1 PUSH1 0x40 DUP4 DUP6 SUB SLT ISZERO PUSH2 0x18A2 JUMPI PUSH1 0x0 DUP1 REVERT JUMPDEST PUSH2 0x18AB DUP4 PUSH2 0x182B JUMP JUMPDEST SWAP2 POP PUSH2 0x1886 PUSH1 0x20 DUP5 ADD PUSH2 0x16B5 JUMP JUMPDEST DUP1 CALLDATALOAD PUSH5 0xFFFFFFFFFF DUP2 AND DUP2 EQ PUSH2 0x16CC JUMPI PUSH1 0x0 DUP1 REVERT JUMPDEST PUSH1 0x0 DUP1 PUSH1 0x40 DUP4 DUP6 SUB SLT ISZERO PUSH2 0x18E1 JUMPI PUSH1 0x0 DUP1 REVERT JUMPDEST PUSH2 0x18EA DUP4 PUSH2 0x182B JUMP JUMPDEST SWAP2 POP PUSH2 0x1886 PUSH1 0x20 DUP5 ADD PUSH2 0x18B9 JUMP JUMPDEST PUSH1 0x0 DUP1 PUSH1 0x40 DUP4 DUP6 SUB SLT ISZERO PUSH2 0x190B JUMPI PUSH1 0x0 DUP1 REVERT JUMPDEST PUSH2 0x18EA DUP4 PUSH2 0x17F9 JUMP JUMPDEST PUSH1 0x0 PUSH1 0x20 DUP3 DUP5 SUB SLT ISZERO PUSH2 0x1926 JUMPI PUSH1 0x0 DUP1 REVERT JUMPDEST PUSH2 0xCC4 DUP3 PUSH2 0x16B5 JUMP JUMPDEST PUSH1 0x0 DUP1 PUSH1 0x40 DUP4 DUP6 SUB SLT ISZERO PUSH2 0x1942 JUMPI PUSH1 0x0 DUP1 REVERT JUMPDEST PUSH2 0x194B DUP4 PUSH2 0x16B5 JUMP JUMPDEST SWAP2 POP PUSH2 0x1886 PUSH1 0x20 DUP5 ADD PUSH2 0x182B JUMP JUMPDEST PUSH4 0x4E487B71 PUSH1 0xE0 SHL PUSH1 0x0 MSTORE PUSH1 0x32 PUSH1 0x4 MSTORE PUSH1 0x24 PUSH1 0x0 REVERT JUMPDEST PUSH1 0x0 PUSH1 0x20 DUP3 DUP5 SUB SLT ISZERO PUSH2 0x1981 JUMPI PUSH1 0x0 DUP1 REVERT JUMPDEST PUSH2 0xCC4 DUP3 PUSH2 0x18B9 JUMP JUMPDEST PUSH4 0x4E487B71 PUSH1 0xE0 SHL PUSH1 0x0 MSTORE PUSH1 0x11 PUSH1 0x4 MSTORE PUSH1 0x24 PUSH1 0x0 REVERT JUMPDEST PUSH1 0x0 PUSH6 0xFFFFFFFFFFFF DUP1 DUP4 AND DUP2 DUP2 SUB PUSH2 0x19BB JUMPI PUSH2 0x19BB PUSH2 0x198A JUMP JUMPDEST PUSH1 0x1 ADD SWAP4 SWAP3 POP POP POP JUMP JUMPDEST DUP1 DUP3 MUL DUP2 ISZERO DUP3 DUP3 DIV DUP5 EQ OR PUSH2 0xA28 JUMPI PUSH2 0xA28 PUSH2 0x198A JUMP JUMPDEST DUP2 DUP2 SUB DUP2 DUP2 GT ISZERO PUSH2 0xA28 JUMPI PUSH2 0xA28 PUSH2 0x198A JUMP JUMPDEST PUSH1 0x0 PUSH1 0x20 DUP3 DUP5 SUB SLT ISZERO PUSH2 0x1A01 JUMPI PUSH1 0x0 DUP1 REVERT JUMPDEST DUP2 MLOAD DUP1 ISZERO ISZERO DUP2 EQ PUSH2 0xCC4 JUMPI PUSH1 0x0 DUP1 REVERT JUMPDEST PUSH1 0x1 PUSH1 0x1 PUSH1 0x70 SHL SUB DUP3 DUP2 AND DUP3 DUP3 AND SUB SWAP1 DUP1 DUP3 GT ISZERO PUSH2 0x1A31 JUMPI PUSH2 0x1A31 PUSH2 0x198A JUMP JUMPDEST POP SWAP3 SWAP2 POP POP JUMP JUMPDEST DUP1 DUP3 ADD DUP1 DUP3 GT ISZERO PUSH2 0xA28 JUMPI PUSH2 0xA28 PUSH2 0x198A JUMP INVALID LOG2 PUSH5 0x6970667358 0x22 SLT KECCAK256 0x4C SDIV BLOBHASH 0xB5 DUP7 LOG1 DUP10 INVALID BLOBBASEFEE 0xC6 JUMPDEST ISZERO CODECOPY MSTORE PUSH4 0xFEB3DB87 SWAP4 PUSH8 0xB22F2CE41E08B526 0xD5 XOR 0xF8 PUSH5 0x736F6C6343 STOP ADDMOD XOR STOP CALLER "},"methodIdentifiers":{"_minimumAPRRate()":"4a87da28","_userStakingInfo(address,uint64)":"05a29430","calculateCompound(uint256,uint256,uint256)":"c6928f19","calculateStakeYield(uint256,uint256,uint256)":"2cd15a1c","extendStakingPeriod(uint48,uint40)":"ae3fee72","getUserStakingInfo(address,uint48)":"f6220fde","getWithdrawableAmount(uint48,address)":"997fc361","idCounter()":"eb08ab28","maximumStakeCap()":"93797eb2","minimumRate()":"fae6dbe3","minimumStakeCap()":"56f5fb78","owner()":"8da5cb5b","renounceOwnership()":"715018a6","setMaximumStakeCap(uint112)":"372149c0","setMinimumStakeCap(uint112)":"a72210aa","stake(uint112,uint40)":"aec119a1","stakeBatch(uint112[],uint40[])":"13acba97","token()":"fc0c546a","transferOwnership(address)":"f2fde38b","withdraw(uint48,uint112)":"9482d0f9","withdrawAll(uint48)":"3ac1d342","withdrawBatch(uint48[],uint112[])":"23cc129d","withdrawYield(uint48)":"63318278"}}}}}